:20000000004B0020E94A0100FDC90110FDC90110FDC90110FDC90110FDC90110FDC9011037
:1C002000FDC90110FDC90110FDC90110FDC90110FDC90110FDC901103BCA0110A4
:20003C00000105090004081000040810020402010101010902000120181A18182C34041E41
:20005C00000C0E020B040B0A070800110F00A6AAACA4A9A9A399B19ABCB6A8313117191AD6
:20007C0021241B1D1F31313331313118191A22311C1E20313134310000000500BD00B70068
:20009C00B100BC001C00300038000800380102000000000002000000020000000A00000002
:2000BC0002000000020001000000000000000000000000000000000000000000000000001F
:2000DC00000000000E000000C003000080070000000F0000001E0000003C000000780000CB
:2000FC0000F0000000E0010000C003000080070000000F0000001E0000003C0000007800E8
:20011C000000F0000000F00038C40D00C80000008100000032000F0100C50D0090010000EC
:20013C004000000096000501952B0D00C80000002200000032000F020000000000000000CD
:20015C0000000000000000000000000000000000000000000000000000000200000002007F
:20017C00020002000000030004000100000002000000000000000000050001000000070048
:20019C00060001000000030007000800000000000F0001000100FF00100008000000000002
:2001BC0018000800000000002200020000000000010171010101010111010101310101011F
:2001DC00010180010001100161013B001400630173017201620143010001130106013D0171
:2001FC00350004011201000100010001000104010401330133013C01440132013600000134
:20021C00000165010001350081010001050182018301000166010001000108010901030213
:20023C007102300160021102700201020202020280020002100261023A00410063027302BE
:20025C007202620243020002130238000002000204021202000200020002000204020402E4
:20027C00370037003C024402000239000002000265020002350281020002050282028302FC
:20029C00000266020002000208020902030471040204600411047004020402040104020439
:2002BC00000410046104000414046304730472046204430400041304060400040004040453
:2002DC00120400040004000400045104640000040004000444040004000400040004650456
:2002FC00000435048104640005040004830400046604000400040804090400003600010062
:20031C000600000000000000000F000000000000000000000000000000000300FFFF0000AB
:20033C000403FFFF0000FFFF0F00E8030005401F0310000101000000FF3F0F0008000E00C8
:20035C0000000000000000000300010F000009010000000000000000000000000000000064
:20037C0000000000000000000000000000000000000000000000000000000000AD000001B3
:20039C00000000000001363601010001020100010301000104010606080400000C0100346A
:2003BC000D01000F10040101140100FF1608000020020000220100FF23010001240100FE30
:2003DC00250100082602000028010001290100012A0200002C01000F2E020000300100018C
:2003FC0031010008320200FF34010007350102FF360100003701000138010001390100FF1E
:20041C003A01000F3C0200FF3E01010F3F0100014001041F41010001420100FF43010080FC
:20043C00440800004E0100084F01000F50010001510100FF5201000A53010089540100016B
:20045C00580400005C0400006004000064040000680400006C040000700400007404000030
:20047C00780400007C040000800100FF81010001820100018301010284010001354525151C
:20049C0002030504FFFFFFFFFFFFFFFF9A1000000000000000000000000000000000000090
:2004BC00000000000000000000000000000000000000FAFA14000000000000000000000117
:2004DC000000010100000000000000000000000000000000000000000000000000000000FE
:2004FC000000000000000000000000000000000000000000000000000000000000000000E0
:20051C0000000000000000780008020030000A00000800000000000000000804FA000000F5
:20053C00FFFFFF000C1100000000000000001D1100000000000000002E010F000000FA001F
:20055C0000002F0100000000FA000000300100000000FF000000310100000000FF000000F4
:20057C00320100000000030000003301000000000300000034010000000001000000350285
:20059C0000000000FFFF0000370200000000FF000000390200000000FF0000003B02000092
:2005BC000000FFFF00003D0100000000FF0000003E0100000000010000003F010000000064
:2005DC00010000004001000000000700000041200000000000000000610200000000FFFFF4
:2005FC000000630800000000000000006B0800000000000000007308000000000000000086
:20061C007B0800000000000000008302050000005802000085010000000010000000860239
:20063C000000000032000000880200000000320000008A02000000000A000000006936017A
:20065C0000007904010002B37A0000002783010001B37A000000278301000385E9000000DC
:20067C00278301000495820100002783010001A782010001A1820100012783010001278345
:20069C000100012783010000D15201000127830100012783010001278301000127830100BD
:2006BC0002A782010002A1820100022783010000D15201000227830100022783010002F1AE
:2006DC00380100022783010004134F0000002783010003A782010003A182010003B37A0083
:2006FC000003B37A000003278301000385E90000032783010000D15201000327830100030C
:20071C002783010004A782010004A182010004B37A000004B37A000004B37A000004134FC3
:20073C00000004278301000427830100048F82010000D1520100010469290000030000006B
:20075C0000040000E5F7010083F90100D7F90100F1F3010055F40100CDF8010059FA010005
:20077C00BFF90100A9FA0100F1F2010011F5010065F90100F9F8010065F50100B5FA0100B9
:20079C00CDFA010095FA010081FA01003BFA01002DFA0100CDF6010067FA0100A5F9010046
:2007BC000DFA010095F60100D7FA0100B12101000561010001F00100B9F5010029F10100C1
:2007DC00F5F901000D530100FD770100E5770100B5F40100398001002B80010051F6010083
:2007FC000000000000000000C3810100DD7E01000DF7010000000000000000000000000037
:20081C000000000000010400003333333333333333333333333333333303010F0000000074
:20083C00000000000000000000000000FFFFFFFFFFFFFFFFFFFFFFFFFFFFFFFFFF464854CB
:20085C00657374000000000000000000000000000000000000000000000000000000000030
:20087C002D08000001000000440B0000080000005207000001123456789ABCDEF00000003D
:20089C0000000000000000000000000003007100300160001100700031022003500480008C
:2008BC00070010006100000014006300730072006200430000001300060000000000040086
:2008DC001200000000000000000004000400370037003C024400000000000000000065008D
:2008FC000000350081000000050000008300000066000000000008000900010371030103AB
:20091C00010301030103010322030203010300031003000300030003000300030003000352
:20093C00420300032403060300030003040312032503230325032303040304030003000351
:20095C000003440300030003230300036503210035038103000305030003000300030003A6
:20097C0025032303080309031404C0A0FE0000001404C0A00A0480A0090480A008400080E5
:20099C00FE00000006088080070880800D2007C00E2007C01400C080024000800300C080DE
:2009BC000108C0801E08808009400080084000800A400080FE0000008F0000008F00010034
:2009DC008F0002008F000300900000018F00010190000002900000038F0001048F00000569
:2009FC008F0008048F0000048A000006510000007F0001003F0004003F0002003F00010088
:200A1C007F0002007B756E6B6E6F776E2D696E7374616E63652D6E616D657D007B656D7024
:200A3C0074792D696E7374616E63652D6E616D657D00C0467B7374617469632D696E7374EC
:200A5C00616E63652D6E616D657D00C000000102030410000810182004040810181C100406
:200A7C000810181C0000000008000000000000002000000040000000600000000000000046
:200A9C0006000000020000008600000082000000B510010029340100D5780100E9A7000028
:200ABC0061BB0000D1820100C12A0100E1C40000D7820100811401000010004006000000D3
:200ADC0015000000FF000000000000000302FFFFA82D0020200000000103000000000000CA
:200AFC0000000000FFFFFFFFFFFFFFFF00000000000000000101010100C201000300000018
:200B1C00000000007BC80110C5BC0110D9B2011033C20110BDAD0110C1B101106DBA0110FB
:200B3C0065BB01101DC001100000000000000000000000000000000000000000000000007A
:200B5C000000000000000000FFFFFFFF0000000000000000000000003A0100000000000042
:200B7C000000000000000000D5D40000A9320100000000000000000101010000C33B3D3A5C
:200B9C005D3A713AA10A8F3A0F3BB309495E850A2F3B853B001610160E18151C021203244F
:200BBC001858030210025800010000000000000000000000000001000000FF7F0040024038
:200BDC000B00000027000000FF000000AC0A0000202A0020D40A000041B5011095A6011077
:200BFC0015B80110010B0101020801020101004000BE040A00BE0208FFFFFFFFFFFFFFFF12
:200C1C00D82C0020D80B0000FF0000000000000075780100B93D01000600050000000000C2
:200C3C000F000000A98400000000000000000000D1C0011061AD01100A000000541C002001
:100C5C00AD66010097830100D5C6000069820100D2
:201000003C000000000000000000000034100000000000000000000001000000000000004F
:1C10200000000000000000000000000001000000000000000800000000000000AB
:20103C003400000000000000000000006810000000000000000000000100000000000000E7
:14105C00010000000000000000000000080000000000000077
:2010700030000000000000000000000098100000040000000000000001000000FFFFFFFF87
:10109000FF00000001000000080000000000000048
:2010A0002C0000000000000000000000C4100000040000000000000001000000FFFFFFFF2F
:0C10C000FFFFFFFF080000000000000020
:2010CC0038140000E410000095A1011091A70110A1C2011009B2011041B80110A5BC011078
:0810EC0085BC01102E0000007C
:2010F400280000000000000000000000141100000000000000000000FFFFFFFF0000000093
:081114000800000000000000CB
:20111C00341400003011000065C2011069C101101BC2011091BA011005BC0110E5BB0110EA
:04113C00300000007F
:20114000341400005411000071C20110A5B6011099BF011045B60110B5BA011025BC01104B
:04116000310000005A
:201164002400000000000000000000008011000000000000000000000000000008000000AE
:041184000000000067
:20118800240000000000000000000000A41100000000000000000000000000000800000066
:0411A8000000000043
:2011AC00240000000000000000000000C8110000000000000100000000000000080000001D
:0411CC00000000001F
:2011D000000000006C1D002004000000000000000000000020000000701000003000000082
:2011F0001C110000741D00200400000000000000000000000C000000301300001800000096
:20121000401100007C1D002004000000000000000000000024000000481300001800000019
:2012300000000000841D002004000000000000000000000010000000A01000002C000000ED
:20125000CC1000008C1D00200400000000000000000000002000000064110000240000001C
:20127000FFFFFFFF941D0020040000000000000000000000280000008811000024000000A8
:20129000FFFFFFFF9C1D0020040000000000000000000000580000003C100000340000008D
:2012B000FFFFFFFFA41D0020040000000000000000000000100000006013000018000000A2
:2012D000FFFFFFFFAC1D00200400000000000000000000001C000000AC1100002400000018
:2012F000FFFFFFFFB41D002004000000000000000000000038000000F41000002800000089
:20131000FFFFFFFFBC1D002004000000000000000000000054000000001000003C00000024
:1813300018000000000000000000000040130000080000000000000032
:1813480018000000000000000000000058130000080000000000000002
:18136000180000000000000000000000701300000800000000000000D2
:08137800020000002C0C000033
:041384000100000064
:0413880000000E0053
:04138C0000000F004E
:041390003200000027
:041394000100000054
:04139800C81C00204D
:04139C00000200004B
:0413A000AD82010019
:0413A400FDC901106E
:0413A8000000000041
:0413AC00000000003D
:0413B0000800000031
:0413B4000000220013
:0413B800D41A002023
:0413BC00010000002C
:0413C000E01C00200D
:0413C400080000001D
:0413C8000000000021
:0413CC00000000001D
:0413D0000000000019
:0413D400080000000D
:0413D8000000000011
:0413DC00000000000D
:0413E0000100000008
:0413E400D01B0020FA
:0413E80006000000FB
:0413EC0001000000FC
:0413F000B019002010
:0413F40000000000F5
:0413F80000000000F1
:0413FC0000020000EB
:0414000000000000E8
:021406002900BB
:021408000100E1
:02140A002500BB
:02140C003000AE
:02140E003100AB
:021410002E00AC
:021412000100D7
:0114140001D6
:0814180003000000F40B0000CA
:081420000000000000000000C4
:0414280000000100BF
:04142C0000000300B9
:0414300083C4011060
:041434003C14000064
:041438003C14000060
:04143C0000000000AC
:041440009000000018
:041444009000000014
:0414480000000000A0
:04144C00E01C002080
:04145000497E0100D0
:041454002000000074
:04145800C40B0000C1
:04145C00200B000061
:0414600009C30110AB
:04146400D34D010063
:04146800675B0100BD
:04146C0095C801100E
:0414700097C8011008
:041474000000000074
:04147800C30B0000A2
:04147C00380A00002A
:04148000500A00000E
:04148400200A00003A
:0214880008005A
:02148A00090057
:02148C0001005D
:02148E0000005C
:01149000015A
:041494000000000054
:041498000000000050
:04149C00000000004C
:0414A0000000000048
:0414A4008F83010031
:0414A800C15A010024
:0414AC00556E010078
:0414B000455F010093
:0414B4004360010090
:0414B80015520100C8
:0414BC00990F010083
:0414C0007F80010028
:0414C4009538010056
:0414C8000DC801103A
:0414CC001DC8011026
:0414D0000800000010
:0414D40024000000F0
:0414D80018000000F8
:0414DC0028000000E4
:0414E00020000000E8
:0414E4003C000000C8
:0414E8000C000000F4
:0414EC0034000000C8
:2014F00083482DE9F04F0C4601210170DFF80892DFF80882DFF808A2DFF808B27D499C464B
:2015100020270023ADF1540D002517EA0C070B70C949119291F83C33C849CDF848C005EA24
:201530000200139108BF00287AD111984FF0E04761462A460F4002EA000008BF002843D157
:20155000129E119B4FF48600B9F8AA10DFF824C3CDF82C9012EA060700EA030008BF0028C7
:2015700019D1C34812EA060700EA030008BF00286ED037464046119E048100F1380341811E
:20159000002F83E8C00004BF331CB3F1806F5FD102295DD111E037464046119E048100F19A
:2015B00038034181002F83E8C00004BF331CB3F5803F4DD1B1F5505F4AD1006A67464369FA
:2015D00038682146984741E046465146B6F9087091F90000BC42A0F10100087017D1728935
:2015F00006F1380003C8002904BFB0F5803FB2F5505F08D0002904BFB0F1806F022A02D0E9
:2016100011F06AFF03E012F0BBFF16F0EBF9139890F90020521E02706FF00101318113E08B
:2016300046466FF0010006F10801088063B1BE480078832802D0812059460870316919B1FB
:20165000284688472146E9E7CDF82C90B9F8AA10119A129E02202F461040374008BF002872
:2016700000F0D183B24A43F201408842149200F0A383C01C884200F09F83504690F9000047
:2016900052464746401E1070B7F90800844209D0139843F604078F420A9040F09E8315F030
:2016B000ABFF9AE3644890F83CC307F1380090E800034FF482062F4617EA090706EA0800CC
:2016D00008BF002820D113980C4F0A9007F1380003C84FF400322F460F4002EA000208BF91
:2016F000002A02D111F0F8FE77E312F049FF74E3291D0020201D0020141600205019002055
:20171000271D0020472E00202846BCF1010F59460E9002D00F78002F7AD1844C8120149E62
:20173000277808702B46A5816069A770427A017A337002F0070301EB032152098DB234BF98
:20175000291F891EDFF8F081437A8DB233F07F0340F01D8377490988A942C0F218830A300E
:2017700029460FF0C9FE216A04F118000522083116F08CF9ED1EADB20D960520E17E227F6F
:20179000A37E2D4EA081C1F3011B227103EB012096F83C136081002908BFBBF1020F00F0AF
:2017B000F682BBF1020F00F3F28269B110F0070F00F0ED8241B15C490978862904D100F062
:2017D0000701022940F0E382011301F00201022952DA6378DFF8509100F00700022836D117
:2017F0004646D6F804A0002B31D1216A09A801220D3116F04BF90620A081D047804699F812
:2018100000300D48B56847680C96862B18D10FB916F05CFD9DF9240016F0A5FD9DF9246088
:2018300078770020B8774046FE77A847608900F0100010F047FE05E008020020261D0020D0
:201850004046A84713980A9015F02AFFA5E299F800000026862808BF01261398CDF8308096
:201870000A9076B1002012F0D7FEA77808E0C04600000C8C141B0020CDF8308013980A90F2
:2018900063788FB183B9012F00F07E826089022F03D110F0070F40F07782032F05D100F09C
:2018B0000701032901D06FE2608901094FEAE00C09D310F4405F00F06782BA4991F8E07373
:2018D000002F00F06182011301F00201022902DA810A80F05982B2490978C1F381098E11B8
:2018F000B9F1010F00F05082012E00F04D82AB49BBF1020F09D08A5D11F809108918CFB2B9
:2019100006B3C1091ED3BF1E0BE072184944127909798918CFB2C10910D259EA060311D05C
:20193000BF1CFFB20EE0C0464B2E0020582D0020492E00201A1D00206418002059EA060303
:2019500008BF0227C0F30020391A60718D42C0F21B82ED1B5FEA5C010544A8B2208124BF9D
:2019700025210E910E990818743080B215F020FC65782061002800F007820021742210F0FE
:20199000BBF90020E070B4F80A801DB90D9908F02000087000250D9B60790F951D78109052
:2019B000002D3BD0051C39D108F00708B8F1030F06D0B8F1010F22D17A4890F82A04F0B157
:2019D0007848B0F854000023810809D3754991F8825095B94D681DB16D7E35F07F050CD158
:2019F0005BB98008984605D385498D68887805B1A84710B9B8F1000F01D00420E0706948A6
:201A100090F83C0310B1BBF1020F01DA15F09CF96079B4F80A801090E0780F90216901F1DA
:201A300074004860886525890D812089A1F85C005FEA18100FD31098C0F1030082B2A1F837
:201A50005C20886DCF4916F021F82169B1F85C20886D801888655248CA4B0078C0F30112B8
:201A7000109D18780F9BA1F80C8000F07800104318430874FF228A7320790E9005B100208D
:201A900081F8306081F83A9081F84900A089002F2946A0EB010085B2A58100F06A81BA469D
:201AB000216AE780684652464919083115F0EEFF3B487F19BDB2A581216900780A7C6E4665
:201AD000C0F3011B801002F0400910F0030F00F0030744D0BBF1020F4FF0000301D1D00992
:201AF0000BD29DF801209DF8000000EB0220A1F844000DF10206A1F84200C94AB1F84400E3
:201B1000B2F85A20824203D04FF6FF72824223D1032F12D072783078C14B00EB022082B299
:201B30004A86B3F85810B61C0120914213D04FF6FF71914218BF00200DE0C94800683146AD
:201B5000323016F0D2FBC648B54900684F31323015F0B4FD08360346002B00F00D811048AC
:201B70000078831126D02069BBF1020F03D0017CC90903D309E059EA070706D17278317871
:201B9000B61C01EB0221A0F84210032B0CD07178327802EB012202850CE0C0460C0C00002C
:201BB000732D002008020020AD4800683146283016F09BFB08F00708B8F1030F07D0B8F121
:201BD000010F39D1A84890F82A74002F34D0A6482669876F4FF00008EFB17B7E33F07F039A
:201BF00015D096F8300002280CD003280FD107F1700006F1280115F061FD40B11CE0C04643
:201C10002C1D0020B7F87000318D884214D057F80C7C002FE1D1B8F1000F0DD1914F594BEE
:201C30004046E07038784246C0F3011118780F9200F07800084330748B4890F83C7317B167
:201C5000BBF1020F0BDA0D98077847B1109830B90E980F9910F0C8FFA589B4F806A0206907
:201C700081890909C0F08580806D6946524615F00DFF2169886D50448865276AB1F85C00A8
:201C900001225044A1F85C000DF125007919083115F0FCFE6E1CB5B2A58121699DF8250040
:201CB000896D087021699DF825709DF82530886D401C8865B1F85C00401CA1F85C0007F07D
:201CD000070081F82400C3F3C10781F8257091F8246020898046002E4ED05F497F183E7807
:201CF000361D8642E68047DC216A324605A84919083115F0CBFE38789DF817209DF81410E2
:201D10009DF8163040193D78001D01EB026180B201EB0341A0819DF81530206901EB032168
:201D300081616DB14E4800686D1E06A92A461C3015F0ACFE397820696944C97D80F8261015
:201D5000806D05A9324615F0A1FE2169886D80198865B1F85C00A8EB06078019A1F85C0084
:201D7000781E82B22281B1F85C000A818018A1F85C0000F07FF810E016F0ECF911F0ACFBDF
:201D90000BE0C046722D002015F0C8FF05E015F0C5FFCDF8308013980A90DDF83080D8F8FA
:201DB00004008047216A0A680023137109682162D8F80810884710E0404680784146574667
:201DD000401C887097F900005146401E087011F083FB15F011FC13980A9023480B99104F5E
:201DF00000226FF0010690F83C03A1F8AA203E8110B11498007808B915F0F4FD0A9991F999
:201E10000000401E0870194890F9000010B9134800210170139A92F9000098B102E0C046D3
:201E300050190020119B129F02214FF0E0401940384008BF002908D092F90000002804DCFE
:201E500016F044FA002003F0D7FC0949002015B00870BDE8F08FC0463C0000001E1D0020D8
:201E7000682D0020732D002008020020271D0020291D00202DE9F04FB64D28692C89296AB8
:201E9000AE89806DADF1440D22468919083115F0FDFD2969886D00198865296A3619B6B206
:201EB00001220DF13E008919083115F0EFFD296A761CB4B2042204A8AC810919083115F0FD
:201ED000E5FD9DF813109DF8100000EB01602B699DF81210241D00EB01409DF81110AC81CC
:201EF00000EB0120049015F0F1FED863049815F04BFBA3F84000EA2015F016FC022196481F
:201F10002C690170217CE878084320749DF93E0016F029FA84F8460021899DF93E00DFF8BB
:201F3000F4B284F8480004F17400A065B4F85C00401A61684FF0000AA946401801466060F7
:201F5000A08984F847A0820A18D2020955D310F0070F07D000F00700032812BF081C606870
:201F7000401C46E06168C87800F00702401000F0380000EB42004018001D3AE00CB916F0CE
:201F9000A5F9A089800A2ED361684878C7112AD12589616650464B780A7803F07F035B0063
:201FB00003EBE2137E2B0DD07F2B09D002F07F0280188918801C891C80B28542EBDC08E090
:201FD000514600E00121801C84F8601080B2854201DA504605E06168091861602189091A09
:201FF0002181A4F86800606E10B1B4F86800B8B160686061A089000918D294F86000002866
:2020100000F01881204611F077FFD9F81040E06C002800F00F81B4F85000002840F00A8156
:2020300016F086F85046C9F8100036E250465646059094F82470069005A906AA07AB079663
:20205000204605F01DFC002840F0E780059B656960682689291A701A86B20BB916F036F95A
:20207000B4F85C000090019502960698001D03900598A169A36D3A4615300EF0ABFE0028F1
:2020900040F0CB80BB4894F860502689C15D701A208115B1204611F02FFFA58905F00705F4
:2020B000032D02D160680078E07394F80F80732009A914F009FC832010A906F0A1FC51468B
:2020D000DC460AE0C278012A03D1002F08BFDC2028D0001D491C0990C9B29DF8400088428C
:2020F00040F39A8009988278032D07D00378AB420DD09CF800600EB1022D08D0032DE8D1F9
:202110000378032BE5D103465B784345E1D1BB10B3EBA20F05DA02F0030207F003039A4231
:20213000D0DD504680460598E77B90F814E0514601E0491CC9B28E456ADD06694B00032DAF
:2021500006EB03020AD1F35C032BF2D15278BA42EFD10CE0582D0020472E00201278AA423C
:2021700005D09CF80020002AE3D0022DE1D10698077C002F08BFB8F1DC0F4DD0A069B0F196
:20219000FF3F43D0712008A914F09EFBB548078947B3089D51468446059A95421CD19CF87B
:2021B0000AE0BEF1000F08BF50460CD00698C2687346504696888E4205D05B1E02F10802DE
:2021D00000F10100F6D186451ED0069AD268A36952F830209A4217D87F1E05F12C0501F17C
:2021F0000101D9D1C2000698A169C368491CD150C0681058B0F1FF3F02D107980121C170D4
:2022100084F801A0504609E0DB2007E0DB2004E0DC2002E044050020DD206070D9F810401C
:202230006070A0696778606527B1F22015F07CFAD9F810409B4D95F83C03002800F0AD8092
:20225000A189DFF8648201F00702022A65D199F80170002F61D16778002F5ED1D9F810109A
:202270008DF83FA00DF13600283116F03EF8D9F810100BA80A22283115F008FC414601F176
:202290001002D9F81070D5F860331088401C1080786E04210DF13F029847444609F1100B1F
:2022B00028B9686818B19DF83F1080F86810D9F8107097F83000022812D1DBF8000005F5D6
:2022D0006A710E4602222830203114F073FD38B906F116010DF1360016F007F8D9F81070F5
:2022F00072480078862807D1608A401C6082B88900F0100010F0E6F895F83C0328B1D5F85D
:20231000841311B1D9F81000884715F011FF5046C9F8100015F0C4F9C1E0654A1778002F58
:2023300030D0C1F3013102292CD16078002840F0B4809DF83E005F49464699F80370087098
:20235000B08A04F128021C34002F00F10100B0820CBF50460820584953460B60009001941E
:20237000B5F8CE33117A0D2005F09CFB20B914F0EBFC03E04000000015F030F95846D9F8D7
:202390001040007848B1D5F8841331B1204688472846D9F8104090F83C03A7890A9407F0D6
:2023B000070760B1A07BFF2873D0032F05D1204640680078042802DD6BE0012F69D1381CC7
:2023D0003AD0401E50D0801E63D1A089C0F30130022803D16068007807282BD0208900284D
:2023F00057D0204641684A1C42600F78A446C7739CF824606EB9002F4BD00A2F49DA2F4987
:202410000089C95D814209D0082F42D1082805D03FE0C07B00283CD00A283ADA204601894E
:20243000491E0181C17B0B3101700A99C87B401CC8731BE0322018E095F8B5030F280BD0A1
:2024500015F058FC40B90A988189091301F00201022901DA2969884795F8EB030A9C207442
:20247000152002E00C1D0020162020700A9905F17C0013F045FD124C6068804795F88410BE
:20249000491C85F88410A1688847202015F07EFD3DE70AA812F00EFC39E711F01DF811B045
:2024B000BDE8F08F08020020301C00204B2E0020492E0020461A0020741B002047000000AC
:2024D000641800202DE9FE4FDD4981460122A1F130000260D8480768002FFCD0D74AE34EDD
:2024F000C027D848D84B17603268920808D2324652F8042C03F14104120C42F0F00222701E
:202510004FF0000A8346C1F800A0DFF88CC3DBF80810E04F0191880E43D2480E41D38020B9
:2025300018744FF6D802A3F8512018703868C0F30464162CA8BF203C1E460F3E307800F043
:202550001F001628A8BF2038844223D0624602F1980EE44ACEF800A0251A022D05DC15F16C
:20257000020FB8BF6FF0010500E002254019156800F01F05844245F4F855A6F866504FF08E
:2025900001051560E8D110682E4616601068CEF80050106838460068C0F30420162808DBB1
:2025B00006E0A7F1D0000068C0F30460162800DB203800EB2170401C162805DA10F10A0FBE
:2025D000B8BF6FF0090000E01520D54E00F01F0040F4F850A3F85900306880083ABFD14823
:2025F000C0F800A041F040616246C80E8E0E80F0010000F00100106086F0010000F001004D
:202610009060019810F026FC0146182013F0D8FAA7F13806CD4C30683568A4F10408C0F333
:20263000870105F0030041EA0021D8F80400C04D446840F2FF32534688B22C2100902846B0
:202650004038A047F06AC0F30D011C2013F0B8FAB549706A014000F07C400143142013F0BF
:20267000AFFA316A01F47C000904090C0143102013F0A6FA7D4AB06A1268C0F30351C0F347
:202690000344520813D2DBF80020130511EB237103D41029A8BF0F2100E05146120414EBD6
:2026B000227403D4102CA8BF0F2400E0544644EA011400F47F4200F0FF01B9F1220F42EA5E
:2026D000044241EA020124BF00F0804001430C2013F076FA954CB9F1220F32BF01202068AA
:2026F000C0F30070B9F1220F4FEA400040F0200085F8090126BF2068C0F3407001208D4EB0
:20271000B9F1200F40F0100085F8090138BF514606D33168C80C00F44070C1F384510143C4
:20273000282013F04DFAB9F1200F26BF3068C0F301505046B9F1220F4FEA400040F0600023
:2027500085F80C0126BF2068C0F3C0605046B9F1220F4FEAC00040F0800085F8010126BF21
:202770002068C0F345505046B9F1200F4FEA800040F47C40A5F89C0138BF6F490AD3306803
:2027900001038A15920501F47C1100F00F00114341EA0031082013F013FACC3F4FF48000B8
:2027B0002860664AB86D40F21E216FF31F40814216D93868030E03F00F0113F00F0FC0F340
:2027D000034018BF491E072805D006280EBF0720801C00F00F0041EA0011A2F1080001705F
:2027F000DDF804C0CCF381477F1E02D07F1E31D02CE02068810C29D24FF480412960D2F829
:202810000210430AC0F3033703F0800321F08F010B4347EA0301C2F80210D2F80130060AEB
:2028300066F30303C2F80130116800F0E70721F0E70147EA01000CE09402224300600C4029
:2028500040100940AC3F0050156208404FF000402A46106005480068C0F3C0070FB940201F
:20287000A8624FF40070286402E0C046B03F005020684027C0F3C14040F0300085F8C80090
:20289000CCF3815080B3401E08D0FFE7401E23D0022122E08813005000002043012013F061
:2028B00063FE06460420314610F0C6FC042013F05BFE8642FAD12248066826F07F4013F03B
:2028D00091FCD8F81400036807214FF06022300E98474FF4806028600321042010F0ACFC6B
:2028F00009E0C0462C2009400420012110F0A4FC144813F077FC203C206800F03F0085F8FC
:20291000CB0FD8F80030124ED96830680220884710480D4C076001212160BDE8FE8FC046B0
:202930000000094094042A43FCFCFC008C13005040A00C409813005000803F400A6008407E
:20295000A83F0050BD37860094046042A40100102C20094000600C402DE9F04F0D46C94CC9
:2029700001686162416880686160ADF12C0DA060284613F011F84FF008094FF0010BADF838
:20299000089002A8ADF80AB0616A08908847BE4E9DF80C1071700499716108B114F03EFD4F
:2029B00028688047A046D8F80400804709904FF40057ADF808901E20D8F82410ADF80A00CE
:2029D00008980397884712F0CFFECA4C206C40688047206CC16868468847206C83686A46A5
:2029F000002001469847E06308B914F017FD14F0E5FEC24FC4F8D470C24AC4F8DC20C2499E
:202A1000C4F8E010BC4830610025A4F85450BC4BC4F8D830BD4FC4F8E47004F5C472C4F82E
:202A3000642104F1C001C4F8681104F1D400C4F86C01B74BC4F8E83013F05CFE04F198075D
:202A500004F51C70C4F87471B34AC4F87001B14BC4F80821B14FC4F8B03003F16E00A7652B
:202A7000B04AC4F8B400AE4B2266B04FE365B4F85410C4F8107241F00100A4F85400AD4AAD
:202A9000C4F83022A8496166A94BC4F8203204F15807C4F88471AC486062A7492161A84A3F
:202AB000E261A64BA361A749216214F029F9A74FC4F84073A849C4F84C13A54BC4F84433A1
:202AD000A44AC4F84823A54FC4F85073A649C4F85C13A34BC4F85433A24AC4F85823A34FFE
:202AF000C4F86073A449C4F86C13A14BC4F86433A04AC4F8682384F83C53B4F85400B5607F
:202B100040F01000A4F854009C4FC4F870739E49C4F87C139A4BC4F874339A4AC4F8782336
:202B30009A4FC4F880739C49C4F88C13984BC4F88433984AC4F88823984FC4F890739A4985
:202B5000C4F89C13964BC4F89433964AC4F89823964FC4F8A073984981F800B0944BC4F8E6
:202B7000A433944A156002204D8013F0C5FFFF210222F06215F0FDFBF01CFF21022215F07D
:202B9000F8FB022013F0B8FF8C4F386008B914F045FC38682946022215F0EBFB07A806A961
:202BB00012F0FEFDF06A9DF81C10421C01709DF81C00107025709DF81C00B07014F0E8F9A2
:202BD000B061089FD8F82410ADF808901420ADF80A00384688471523ADF808900398ADF807
:202BF0000A30D8F82410F061384688470398754FDFF8DCA1744B3D70801E3062704E1D704F
:202C10000AF10E023570108875700E30356180B214F0CEFA074677610FB915F057FB0297C8
:202C30008DF80C509DF80D00684965F301008DF80D009DF80D00534665F383008DF80D00BD
:202C5000D8899DF80D20088065F307128DF80D20ADF80E00706902A94A4614F017FF37621C
:202C7000756211F0E3FF5B4E3078012802D0284602F0C2FD58480570584F3D7030780128E5
:202C900007D003E064180020401B0020284602F0B3FDD8F808100998884701F087F814F077
:202CB000A7FA94F8EB0311F023FE584602F0A4FD0FF03BFA4A4805703078012802D028464A
:202CD00002F09AFD10F0F2F91820464FADF80890454EADF80A00D8F824100397089804964C
:202CF000884708B115F0F2FA03F00EFB0BB0BDE8F08FC046080200207546010049880000B3
:202D1000493501009B73010039D1000095E100008D1B0100CC0100004DD0000041BA000007
:202D30001DB20000B94801000D5E0100B53E0100E51E0100E9820100D18B00005DD8000051
:202D5000416A01007D1D0100715901000D02010051680000F523010041570100D180000085
:202D7000D1EB0000A15D0000FD2D00006F1301007D86000025D20000B17B010055940000CC
:202D900015440100396C01000DD300008DA60000916F0000D773010091EC000049390100C5
:202DB000156C01001D4A0100016F0100B57701009B820100282E0020CC1D00203C2E002054
:202DD000582D0020472E0020492E0020D41600200C1D0020291D00204B2E0020422E002030
:202DF000482E002093260100C41C00202DE9F04FADF1840D1A9104461B920DF15F00CF49D8
:202E10001C93082214F042FE2046694612F088FE1D9018B900200146209006E20220002722
:202E3000A41CDFF820B31E90C54E2097204602A911F0DFF85FEA000900F0F38120990DF14A
:202E50004100162215F095FA9DF809707F1E00F088807F1E40F0DD81B9F10A0F40F3E4812C
:202E7000A41C06A80422214614F010FE241D07A80222214614F00AFE42F20B000DF11E0152
:202E900011F0C0FABDF81E00BDF81C10884200F3CB81A41C14F8010B14F8017B14F8015BE2
:202EB0008DF8410014F8011B8DF842700DF141028DF84350204606F0EFF9C249097800288C
:202ED000044400F0B1811D9D012905F1020500F099814FF400500DF1570111F093FA0DF118
:202EF00057000DF15F01082213F064FF40B11A990DF15700082213F05DFF002840F08281A0
:202F100042F2010006A906F09DFA42F20B0007A906F098FA42F205000DF1410106F092FABE
:202F30000DF1420142F2060006F08CFA0DF1430142F2070006F086FA11A942F2090006F0AA
:202F500081FA9DF8440028B1022840F05B8142F2030001E042F20D000DF1450106F072FAFF
:202F700050E1B9F1040F40F35F81A41C14F8010B14F8017B14F8015B8DF8410014F8011B8A
:202F90008DF842700DF141028DF84350204606F083F90028044400F047811A9808A906F038
:202FB0001FFB9DF83E00002840F00E819DF8440000287BD1B6F84E70002F00F00081B6F826
:202FD0005200874207D0308B718B884201D109F0FFF8B06D20E0B76D4FF4005004A911F02A
:202FF00011FA14F035F84FF6FF78209D1F90AA46B6F84E00A84243DCB06D4FF6FF71414510
:203010000AD04FEA480707EB88073818808811F0F9FEB06D3F1823D1B6F84E300746002B61
:2030300008BF209D19D05846209D40681946D846BF1FBF1DFA782AB1491E05F10105F8D160
:20305000BF1D0AE08047B6F85210491CA6F85210D8F808108847B6F84E30AB4200F0978087
:203070001A980AF0BDF9B8800120F870FD788DF83E50B888ADF83F00209B8DF82B30A3E053
:20309000B88811F02FF80146082204A813F092FE40B1388801041F9815F03FF982453CBF9C
:2030B0008246A8466D1CBF1DADB2A1E7B6F84C70002F00F08480B6F85000874207D0308B18
:2030D000718B884201D109F083F8706D1FE0776D4FF4005004A911F095F913F0B9FF4FF645
:2030F000FF78209D1F90AA46B6F84C00A84250DC706D4FF6FF71414509D008EB481738184A
:20311000B0F81F0011F07EFE706D3F1829D1B6F84C300746002B08BF209D20D0DBF8040040
:20313000209D1946D846213F2137BA7F62B1491E05F10105F8D1213711E0C046A004000022
:2031500060100020641800208047B6F85010491CA6F85010D8F808108847B6F84C30AB422D
:2031700015D020993846212215F003F91A980AF037F9A7F81F000123FF2039462122BB770E
:203190000546787208A8FD7214F080FC1CE0612057E0B7F81F0010F0A5FF0146082204A808
:2031B00013F008FE38B179681F9815F0B6F882453CBF8246A8466D1C2137ADB294E764200B
:2031D0003FE0C0460A0200209DF83E000DF14101162240F004008DF83E000AA814F056FC44
:2031F0001D9D9DF84400AD1C48B19DF856700DF14500394610F0CCFB3F1A8DF83D7008A84B
:203210000FF040FA1E9809EB0007BF1CB8B21E9003E01D9D4C44A41CAD1C1E9885423FF758
:2032300005AE1E98022803DC20990A46672004E01D9A911C121A2098921C1B9B19801C999E
:203250000A8021B0BDE8F08F2DE9F04F0320ADF1440D12F0DFFFC94C0025022004F11C012A
:2032700041F80C5F401E8D60FAD104F14000A846062701467F1E21F80C8BFBD14FF0080984
:20329000CA4BC949CA4EA0F800901B1D816004F11C07AB4623F003031A46F11A2162104638
:2032B000A3611E46E3615B18834200F2BE81881021F00301E82302EB800040F804BCEC39A7
:2032D00033604046C2F8E810E83222611BF0CAFF6061B9493868DFF8E8A220610A680AF1F0
:2032F0000C06326049687160B248B4494A4613F061FD28B9AF48CE490A680260496841609B
:20331000CC48CD4FC0F8AC70C0F8B450C0F8C450CD4EC0F8C850CD4BC0F8B060CC4AC0F878
:20333000B830CC4FD0F8AC10C0F8BC20C0F8C07009B1404688471CF00DF8C74ECDF82CB0A4
:2033500041460C2206F128000EF0D6FCC34F0222ADF8209041F27073F762708DADF82220DB
:20337000616A33631027099740F01900708508A8884700280CBF0A9F47460120ADF82090A9
:20339000616AADF8220008A888479DF82400544620700A99616077B1D021397087F8018003
:2033B000B87087F8038087F804803946BD600220FD6011F0C1FFAA49182001221BF008FF94
:2033D0007C49E22014F05AFD18201CF0E9F960706068B246CAF808000BF02EFBAA4F0AF123
:2033F0008400A060DAF808509E4C41466762F520A56014F0CBF9F820414614F0C7F99A4DA9
:203410000D200E26687005F10C01AE7005F118000DF0C2F8A860687814F0F4FB00B1C146EA
:20343000A87814F0EFFB08B949F010098F49A86814F03CFE8E49C82205F1240011F0ECF974
:203450008C48B9F1100F686010D1606A70B1C26862B1FF208DF810004FF6FF77ADF8127058
:2034700004AEADF8147096E803009047824D05F1140005F108010DF08FF86860404614F05B
:203490004BFE4746AE1E814606F8028F02207070384614F0A7FE014668684A46C9B212F0D7
:2034B000D3F97F1C022FEFDB744905F120004FF4FA7211F0B1F9724D05F11000291D0DF065
:2034D0006BF82860606A002845D00769DFF8B4916FB1009449460EA80A68898802600EAEC4
:2034F000818096E8030001234246B847606A002831D0C26852B149460EA80B688988036043
:203510000EAF818097E803009047606A18B307690FB306208DF80800ADF80A000DAEADF8FB
:203530000C8002AD009695E8030042460223ADF83420B847666ABDF834007769A08057B1C4
:20355000BDF8340002AE401CADF8340096E8030002220DABB84739A014F01CFCE820012112
:2035700014F014F9E720092114F010F9606A0626002837D00769002F34D001E064180020A7
:203590008DF818600425ADF81A500BA8ADF81C8006AB009093E8030042462B46B84788B9FA
:2035B0000B98193083461DE045F901004C2E0020004B0020041D0020C8FF0100140C0000DC
:2035D000F81C0020606A8DF8186006AFADF81A504469ADF81C8097E80300CDF830B02A4697
:2035F0000CABA047CDF82CB058460DF015FDE0200C2114F0CBF84F20032114F0C7F857200E
:20361000052114F0C3F84E20042114F0BFF85920032114F0BBF813F07FFF0AF10200012173
:2036300014F09DFA00F086FDFCE740F804BB3BE6F0120050D4070020D54F010054492053EF
:20365000656E736F7200C04639540100110501002158010001E40000EC16002020BF020026
:203670003D48000010150020FC190020C95801001D790100B57A0100901A0020290C010052
:20369000941C0020340C0000800800202DE9F04FBF4C0546A07AADF1340DC00013F02CFAD5
:2036B000DFF8F092089009F10400006880470B900AA9822005F0A4F9BDF82800002834D150
:2036D0004FF000084FF6FF76ADF8288024E0ADF81460BDF82800ADF81660FF210822ADF888
:2036F000100006A814F045FEA77A57B143461946089AC8007F1E01F10101135010448680EC
:20371000F6D18DF82480D42004A903F009FBBDF82800401CADF82800A088BDF8281088422C
:20373000D5DC82200AA903F0FBFAB94F0020A0464FF6FF79A2463988ADF8280006E0B44F61
:20375000BDF828003988401CADF82800BDF828008142DCBF8F48816840F34F81AD48007827
:203770004FF0000B01265C460FE08A49B8F804008968641CA4B2ACE0BAF80600641CA4B2CF
:203790003CE0A448641CA4B20078A04208DC002ED5D1BBF1000F2ED1687F0028CFD02AE0B7
:2037B000BDF828008DF802406946ADF80000D02005F026F90028E4D19DF80C30012B08D14A
:2037D0009DF80B0028B90DF1030014F053F90028B5D16F7B002F0CBF052209225E469F429E
:2037F000CFD10DF1030005F10E0113F031FD0028C7D04FF0010BB8F806000024A0425CDDE3
:20381000BDF82800ADF802406946ADF80000D12005F0F6F80028AFD1BDF804008145ABD00A
:20383000ADF8100004A9D42005F0EAF800285AD106A8291D082213F00BFD00289CD028888B
:203850006F88ADF81400BBF1000FADF8167022D0287B98F80A708DF82400381C08BF00203F
:203870000FD00899024600208B88994509D0BDF828609E4205D0521E01F1080100F1010037
:20389000F2D187422FDD0899AA69C000BDF828700A5040188780D42004A903F041FABBF18B
:2038B000000F0AD0287F9DF80610884205D08DF806006946D12003F033FAB8F80600A0423B
:2038D0007FF43DAF3349B8F80400DFF84CA189680024A04240F38F80ADF81040D42004A9B6
:2038F00005F08EF818B12B498968192486E006AB184614F0BFF838B9291D1846082213F0E0
:20391000A7FC00283FF431AF6F882888ADF816702E7BADF8140098F80A708DF824603B1C1B
:2039300008BF00200FD008991A4600208B88994509D0BDF828609E4205D0521E01F1080169
:2039500000F10100F2D1874203DC124989681A2454E0089A2E1DBBF1000F0CBF0021A96996
:20397000C00011501218BDF8280031469080082206A814F08BF89AF83C0330B1DAF88C23F6
:203990001AB1BDF8101030469047002606E0C0460C1D002064180020761CB6B2B8F8060083
:2039B000B04221DDBDF82800ADF802606946ADF80000D12005F024F8E82803D0BDF8040031
:2039D0008145E9D1BDF810000023ADF804002F7F8DF8073004A98DF80670D42003F0A0F934
:2039F000D120694603F09CF90C488168B8F80400B0427FF7BEAEA042A9D000240B988847D9
:203A1000089813F0A5FA20460DB0BDE8F08FC046141D0020171D002008020020641800209C
:203A30002DE9F04F064692F808B0307D09AF8846ADF1240D04933528039205D0114606F1E5
:203A500070000A2214F022F8DFF8C8C238F07F0506BF604600884FF6FF700590F08A800950
:203A700034BF002008203076F08AC00834BF102080207076F08A400903D260460E30007876
:203A900000E00020B076F08A41082CBF20240024000928BF44F010047568002108F07F0825
:203AB000307D06916D1E02280EDB0C2808DC0C2803D1022044F40854069044F0030404E089
:203AD0000D280CBF02200120044396F88C0008B144F00804E110220900D328B1DFF8BC924C
:203AF00099F8E03313B908B1DF204CE149086ED306F12401DFF8A8A296F88D50079100EBA4
:203B10000A011AF805300A7999183389491DCAB29918A44B1A8808908A42C0F2368100283A
:203B30004CD0049A039906F184000AF02DFD0799002808603FD0806AB0F1FF3F39D0706897
:203B50000023401E8DB196F88E10524600F80119515D491EC9B241B18A1992F88320491E07
:203B7000C9B2002900F80129F6D1079970660968896AB162090E00F8011996F82A1000F8D2
:203B9000011996F82910089A00F8011996F8281005F0030500F8011902F0070141EAC501C0
:203BB000017071683589091ACAB27060A918318105E0DB2700E0F3277770E7E00023F08ADF
:203BD0007370C00828BF44F0100475686D1E336DA3B9B36D93B999F8F913012903D13089D7
:203BF000B0F5EE7F06DA200904D202290AD144F4005401E044F48054012002E044F40854AE
:203C10000220069099F8020001280CD099F83C0348B196F86B00042805D1022024F4805472
:203C3000069044F4005444EA8834B8F1020FA4B20AD0B8F1030F10D1ED1F09F57B7128467E
:203C500014F053FB6D1E08E0B9F8D203001205F8010999F8D20305F80109069802280CD0DF
:203C7000B8F1000F15D0BBF1000F0CD004990598814208D144F040040BE0BBF1000F08D133
:203C9000B8F1000F05D00599081205F8010905F8011944EA8B24BBF1020FA4B209D0BBF13C
:203CB000030F0ED10399ED1F284614F01EFB6D1E07E003990888001205F80109087805F89C
:203CD0000109BBF1000F05D00498011205F8011905F801093878F8B933480178307D0D2836
:203CF00014D068B9306D28B999F8BC03411C89F8BC130AE099F8E103411C89F8E11304E01F
:203D100099F8CA03411C89F8CA13014605F8011904E0C046D605002044F48074201205F8DC
:203D300001092C7070683789401BC1B2756078183081200926D3B06D00B1306299F83C03FF
:203D500010B1307D0D281DD1746A14F1150001D114F0BCFAA16A481CA0623289306AB16265
:203D7000471B0092D21B019090B20290706A96F88C202B4615300AF035FD00281CBF707014
:203D9000071C07D10020707005E0E5277770F32013F0CAFCF8B209B0BDE8F08F08020020B3
:203DB0003C0000001A1D00205C2D00202DE9F04FD54D286A416EADF11C0D02A888474FF080
:203DD0000009D24FCDF80890B8688DF80C90002833D112F0EFF9B8B112F0ECF9012813D099
:203DF00012F0E8F905280FD012F0E4F90C280BD012F0E0F90D2807D012F0DCF90B2803D012
:203E100012F0D8F90E280BD112F0D4F9787000280CBF48460120B870286A00F1200408B9C4
:203E300014F054FA216807F1180088474FF4FA703885B74EFE6206243C63DFF8D882EA699C
:203E500098F8FB434FF0010A4946080100EB41108018867F2EB9437F491C9C42C9B2F4D19D
:203E700002E0417FA14204D1824202D011F094FDEA69DFF8A4B2686A1BC88BE81B0097F95D
:203E90000100012805D00D2803D00E2818BF484600D105208BF8000098F829145069A44C81
:203EB00050F82100C4F89C0013F08AFB632005A910F0CEFD98F8FB0312F03CFA064694F80F
:203ED0008E006AF3020084F88E0011F043FB042825D011F03FFB032811D094F8900040F0E8
:203EF0000F0084F8900094F8970069F3030084F89700B07B052814BF2420292016E094F8C8
:203F1000900040F00F0084F89000292384F8943094F8970069F3030084F8970008E094F821
:203F3000900040F00F0084F89000212084F8940094F8950069F3871084F8950011F00AFB1A
:203F5000042818D0B37A7BB99DF8140094F89510401E60F3050184F8951094F8960020F0F8
:203F70003F0040F0180014E09DF8141094F8950061F3050005E094F8950020F03F0040F0FE
:203F9000020084F8950094F8960020F03F0040F0200084F89600B189B07BB4F88E200A233F
:203FB000401D484390FBF3F161F3CF02A4F88E20B08994F890201923800390FBF3F102F096
:203FD0000F00D4F890200F23484390FBF3F161F31C22C4F89020E86994F89820017F61F3B3
:203FF000020284F8982094F89810007FC01060F3C30184F8981098F9EA0310F075FAB0F12D
:20401000FF3F05D0010828BF4FF6FF70A4F89A00308971683368EA69401E414303EB510002
:204030004FF47A71B0FBF1F0A4F8A00090690078A4F88290C4F8849094F88D3084F8A40022
:204050006AF3030384F88D3014F078F8C8B9B089324A98F8FB63B1FBF0F0C0B21070B1FBF2
:20407000F0F02F49022E487006D011F073FA032807D105225C2001E00222A820294B1A703B
:204090000870BB682E6A5BB3484610F0F1FDF87898F8FB13884212D13A7998F829142E6A80
:2040B000B8688A420DD102214A468DE80600366D80344B4602AA2146B047EC601BE02E6A27
:2040D000B8687168884718482B6A80F800A01E68164880345946224607F11803B04707E06B
:2040F000803422461148346807F118035946A047B860686AA86298F8FB0398F82964F870FF
:2041100007B03E71BDE8F08F501900200C1B00207B1D0100080200200C2E0020B01C00202C
:20413000441A0020301C00202A1D0020482B0020141600202DE9F041C84CC94DDFF8248352
:204150006088ADF1400D4108C0F0838006A802A90FF032F901286DD1404624300068D8B1CB
:204170000769CFB1062009AB8DF83000022600930022ADF832600CAEADF8342096E8030068
:204190000C23B84740B9BDF8240060850A9FE7620B98206313F00EFD0226BDF80A10BDF858
:2041B000080084F8246003AAA1830FF085FA011C02D0B6A014F081F830460EF0E5FDBDF8CB
:2041D00018009DF81470A5F8400007A985F8427005F1500014F001F8BDF81A0005F146068E
:2041F00003A9A5F84E00304613F0F7FFBDF80A00B5F84010A5F84400502013F0BBFAB5F837
:204210004E10532013F0B6FA4A20314613F036FE95F84210E12013F0B9FAB5F844104B20F0
:2042300013F0A8FA05F10A00102113F098FC0120207008E012F0BCFEE06001200EF0A4FDAC
:20425000002013F093FDA01C012113F072FC2046408880080DD3E06A12F00CF812F048FB21
:2042700000B2A082E08202F027FCA01C022113F060FC6F89780805D305F10A00012113F030
:2042900058FC6F89B80805D305F10A00022113F050FC6F89780917D38349182042220FAB33
:2042B0001AF096FF95F85A0005F10A06032818BF042802D1286E11F0C5FF10F083FF30460E
:2042D000102113F036FC6F89B80907D30DF07AFE05F10A00202113F02CFC6F89F80907D321
:2042F0000BF0C8F805F10A00402113F022FC6F89780A0AD395F85D0013F038FD05F10A00F8
:204310004FF4807113F015FC6F89380950D395F85C0005F10A0600283ED0401E36D0401E02
:2043300002D0401E30D03EE095F85810472013F02DFA95F85910542013F028FAB5F8441009
:204350004B2013F017FAB5F84010502013F012FA092701238DF8097095F842008DF80A3072
:2043700002AA8DF80B3051498DF8080018201AF02FFF95F85A00012815D1E87898B1304615
:20439000202113F0ECFB0EE003200AE05220012113F0E4F9022004E05220012113F0DEF9FF
:2043B00001200EF089FC3046082113F0C2FB6F89454617B1A86814F09FF8E9886878490852
:2043D0001CD3A97802094FF0000601D301290ED040090ED301290CD030A013F0DBFCA01CFB
:2043F000012113F0BCFBA86814F086F801E010F0A7F96E70A81D012113F09BFB6088002850
:2044100040D10A2008252A4CADF80A004FF0FF37ADF80850616A039702A88847002831D185
:204430000720ADF80850616AADF80A0002A88847049E0E9630BB1F499DF80E2008789042A7
:2044500015D19DF80C004A7882420DD089684B6C6BB100213246984709E0C046EC16002015
:20447000B817002010150020304600F097FB0E9840B1ADF808500320ADF80A00616A039636
:2044900002A8884710B0BDE8F081C04641757468204572726F723A20307800C0537461729F
:2044B00074696E672E2E2E00614A01001982010064180020F81C00202DE9F843DFF82883C5
:2044D0000F460446F80B80F07481DFF81893B80F80F02D81C54DB80880F02281F80A80F007
:2044F0000081B80B80F0EE80780B80F0C080380C80F0AF803809C0F07F81082013F0EEFD6D
:20451000002840F0A180802013F0E8FD002840F09B8068460CF08CF8012803D1009800282C
:2045300000F0928000240125E0B213F09DFB48B1867A3EB1857290F9090005FA00F0C0B220
:2045500011F0A6FB641C032CEED34C46032020756068783013F0DBFEAB48002601680660BB
:20457000AA4950F8082CB146324640F8089C04F1380013F0DCFE304612F0AAFD13F038FB12
:204590000146A268E069891A090BC1F1FF3282422CBF08444FF0FF30E06194F820601EB152
:2045B0002169B0EBC12F1FD912F0F2FD494600B12946081C14D0964840F609010180494608
:2045D0004180427B65F303024273027B61F303020273416013F09AFC418811F4406FFBD06E
:2045F00084F820504946E16110F000FF89484D4649460560022012F05FFB022011F02EFBCD
:2046100011200AF0F9FB207818B96068403013F096FE8148007810B90E200AF0EDFB94F88D
:20463000210020B184F82150052011F017FB7B48B4F98C60A061B4F98E1025758E4214BF6E
:20465000022007200CF0E0FF27F008070EF054FED2E00835296839B1C86840880028FBD05B
:20467000C86840880128F7D027F40047EEE711F007F938B12046A4696FF4807100224FF0F9
:204690000073A04768494C46002204F1380013F04EFE0220E668207513F0AAFAD4F81C211A
:2046B000636804F58E719A4214BF0122002226B1801B01EB8206030BB360002027F480571A
:2046D000E060C3E74046066846B1B06830B13069B6F93410B46800222023A04727F4005796
:2046F0008AE013F01EFE4C460546206F064688B1606810B1783013F00AFE3069606013F098
:2047100077FAE06046484FF40061A06104F1B40013F01DFE284613F0EBFE27F480676BE037
:2047300006F0FCFA286808B927F0020764E013F0F8FD0546042011F017FFC8B1207CB8B1CC
:2047500048460830006898B1064613F051FAE168801BE060000B8842E06002D2401840088B
:20477000E06040F6C41181422CBFB0F5967FE160284613F0BDFE11F083F880B1A5692046E8
:204790006FF4807100224FF00073A84725480068002808BF47F0020701D00EF0ADFD20460F
:2047B000646900214FF080630A46A04727F0005722E013F0B6FD41460E68CEB1B16A890854
:2047D00016D2B56AB16AA943B16213F091FEB06880B17DB13069B6F93410B4682A46002364
:2047F000A04707E0A0240020282500201825002013F07EFE27F4804727B1404639462C3093
:2048100013F0A5FDBDE8F8831410044081370100E42D0020000004603A1D00209DD6000023
:20483000D9B6000010250020E9B000002DE9F04FC34C07466068ADF1140D80470025DFF8F0
:2048500004830390002F88F8035000F0C68011F051FF08F52A702946402213F08AFDBA4CAD
:2048700004F1080001882C2707FB01F080B212F043F9C8F8CC02002800F05D81E17A208964
:204890004843410001EBC00188B212F035F90028C8F8D00200F04F81E1882089484380008E
:2048B00080B212F029F90028C8F8D40200F043812089800080B212F01FF90028C8F8D802E9
:2048D00000F03981208980B12A46D8F8CC1289180D75D8F8CC1289180D71D8F8CC12401E2A
:2048F000114402F12C028D81EFD1A188880000EB011080B212F000F90028C8F8DC0200F0D4
:204910001A814FF6FF7AA946AB4615E0A77A7FB12946D8F8DC028019C368CA0042F803B070
:20493000C0687F1E01F101011044A0F804A0F0D109F101001FFA80F9A088484500F3EA80BE
:204950009548FF210822C01D13F013FD9248FF21082288F8B712103013F00BFD032688F8CF
:20497000C8622789A8F8CAA2C7B14FF0010C04232A46D8F8D802910001F800C0D8F8D80248
:2049900040184370D8F8D80240188670D8F8D8027F1E02F101020844C370EAD17E480121A5
:2049B000042305220227343000F8041F437082707F1EC170F8D1784880F83C60A08848B1C0
:2049D0002946D8F8DC22401E0A4401F11401A2F802A0F6D1022088F8AC0298F83C0318B1EC
:2049F000D8F8400300B180470EF060FB98F9EA0313F007FA11F094FE13F072F912F0E6FF59
:204A100012F0D8FF514E072456F8040B00B18047641EF9D113F016F8444604F14C0001687D
:204A300009B110F047F94A48006884F8565020B10CF0A6FD0028009068D1464800780128C0
:204A500002D0284600F0D8FE434804F178060570A06F002852D1361DE06F002846D1A56786
:204A70003E48C4F88801E5673D4FC4F88C7184F882503C4EC4F8906184F883503A4BC4F8B5
:204A90009431A570394AC4F8982184F884503849C4F89C113B49C4F8C010364FC4F8A07198
:204AB000394FC4F8C470344EC4F8A461374E334BC4F8C8602249C4F8A831354B304AC4F88E
:204AD000CC308968C4F8AC21324A0398C4F8D020884704F2D131522005F0ACF894F8EB0341
:204AF0000FF0F0FB0EF0E2FA284626E0304610F0A7FF029002A810F0DDF8ADE7304610F037
:204B10009FFF019001A810F0D5F8A1E7684610F0D1F88DE7A37AD8F8DC724846860006EB2D
:204B30000016D80011F0E8FFF119F319C860D86800287FF4EBAE13F0C9FB05B0BDE8F08F3D
:204B500064180020080200200C1D0020100300203C2E0020291D0020462E00202326010035
:204B7000E3820100196A0100F9900000F9DA0000E1710100D95D0100FDB7000029A50000D3
:204B900015630100FF0A0100E5AB0000452801000908010059300100B0040020B0B5044665
:204BB000BA480768ADF1480D002F00F0A8812078401E112800F2A381DFE810F06A0152016F
:204BD000380123011B010401F100E300C300B2008D005D0053004200A1012A001C00120085
:204BF000F86B002800F08B81684621460CF0A0FAF96B82E1386C002800F08181684600211F
:204C100001220DF079F860788DF80000396C74E1F86A002800F07381684600210E220DF032
:204C30006BF8A11C684612F07DFEA57BA1890022ADF80A1005B101228DF80C20F96A5DE1C3
:204C5000B86B002800F05B816846002102220DF053F8A5788DF8015060788DF80000B96B7E
:204C70004BE1786B002800F04A81684621460CF05FFA796B41E1386B08B36846002114225F
:204C90000DF03AF8A5788DF80150A3680193A289ADF80820A17B8DF80A1060788DF8000033
:204CB000E57B8DF80B50237C8DF80C3094F911208DF80D2061690491396B6846884760688C
:204CD000002800F01C810146F22008700020487010F032FB13E1B86A002800F010816846CC
:204CF000002124220DF008F86078A11C8DF800000DF1020012F016FE04F10C0103A812F061
:204D100011FE257EE08A04F119018DF818500B22ADF816000DF119000BF00CFBB96AECE07B
:204D3000786A002800F0EB806846002102220CF0E3FFA5788DF8015060788DF80000796AFA
:204D5000DBE0386A002800F0DA806846002112220CF0D2FF658862796078ADF80250237971
:204D70008DF80520E11D8DF80000A5798DF804300B220DF107008DF806500BF0DBFA396A9F
:204D9000BBE0F869002800F0BA806846002101220CF0B2FF60788DF80000F969ADE0B869A9
:204DB00010B120460FF0D2F8A07820B9A069002800F0A58003E0A069002800F0A08012F096
:204DD000D7F89CE07869002800F099806846002113220CF091FF6D46A01C016840682960CD
:204DF0000B22686004F10A0102A80BF0A3FA796983E03869002800F0828020460AF03EFCD2
:204E10007DE0F86800287AD0684600210E220CF073FF6078A11C8DF800000DF1020012F0CA
:204E300081FDA089ADF80C00F96866E0B868002865D06846002114220CF05EFFA01C016863
:204E50006D46296040686860A07A0B2204F10B018DF808000DF109000BF06CFAB9684CE00C
:204E7000786800284BD06846002110220CF044FF60786588211D8DF800000B22ADF8025013
:204E900001A80BF057FA796837E0C046001D00203868A0B36846002119220CF02DFFA01CF1
:204EB00001686D46296040686860A07A410824BF01218DF80810810824BF01218DF809109C
:204ED000C10824BF01218DF80A10010924BF01218DF80B10C10924BF01218DF80C1030F016
:204EF0007F001CBF01208DF80D000B220DF10E0004F10B010BF01EFA39686846884712B068
:204F1000B0BD7047BA482DE9F84F0025B94CB749056094F8E200002800F06381012800F0EC
:204F30002F81B54E02283CD0032840F05A8151F8250CD4F8B8100029A0F5C060C4F8D400C6
:204F5000B8BF49420028B8BF4042814226DA4FF08057D7F8A4014568B4F8BC0030214FF428
:204F70007F42082300903046A847D7F8A4014568B4F8C00004214FF4F80212230090304616
:204F9000A847D7F8A401B4F8D070456820214FF440620A2330460097A847012584F8D850EC
:204FB0001AE151F8258C13F06FF82F4600B901273946924F38680028FCD0B146012609F120
:204FD0000409D9F82CA03E6009B113F063F8CAF30720C4F8BC0013F057F8AA4600B9B24612
:204FF0003B68002BFCD0D9F800B0BAF1000F3E6001D013F04FF8CBF38440C4F8C00013F012
:2050100043F8AA4600B9B2463B68002BFCD0D9F81C90BAF1000F3E6001D013F03BF8C9F372
:205030008120C4F8D000B8F5C061C4F8B81000F09C8094F8D80068B9C4F8D410D4F8C00024
:20505000C4F8C800D4F8BC70C4F8C470D4F8D030C4F8CC30D4F8D400D4F8BC30002854BFBD
:2050700002226FF0010204F1C8010F6800EB40008018421000EB927207EBA2000860D4F899
:20509000C810C4F8C43000291CDD1E293CDDD4F8CC0030B93429B4BF15391E21C4F8C81084
:2050B00025E02A29BABFD4F8C8000B381E20C4F8C800D4F8C4003F28B4BF401C3F20C4F895
:2050D000C4001FE0D4F8CC00032812D011F10B0FC6BFD4F8C8000B30301CC4F8C800D4F84C
:2050F000C4000028C4BF401E051CC4F8C450032508E011F1150FC6BFD4F8C8001530301C02
:20511000C4F8C800C4F8CC504FF08057D7F8A401B4F8C43030214FF47F42456836480093E6
:205130000823A847D7F8A40104214FF400321123456831480096A847B4F8C860D7F8A40110
:2051500004214FF4F802122345682B480096A847D7F8A40120214FF440620A23B4F8CC6064
:20517000456825480096A84701E084F8D85040F2FF50404502D8801C40452DD208202EE0C5
:2051900051F8251C1E4F4BF2F5204843060A3868C0F3814001280AD111F0AAFB10F008F95C
:2051B00012F07EFF3111C010484306EBE03694F8E50030B91348006820F07F403618760804
:2051D00001E084F8E5501048310C0660012741600E4D8760287808B90B2000E0052084F81A
:2051F000E40004F05FFCBDE8F88FC0462D400C402C500C40FC13002000A00C4000800C40D2
:20521000B43F0050102009403C600C40950B00002DE9F04F09AFADF13C0D08900A92388852
:2052300009911E46ADF81800101C08BF002000F06C81017800274FF0010B401C4FF0FF39F5
:20525000B846DA460A9058E1252940F04D810178401C0A902D2918BFADF8068004D10178EC
:20527000ADF806B0401C0A9030291CBF4246434604D10178401C5A465B460A902A29CDF8EB
:2052900000804D4617D1049330680A9BCDF80890C01C20F00300001D306050F8044C19780D
:2052B000002C009403F101000A9018D5ADF806A06442009413E044460AE0600000EBC400A7
:2052D0004018A0F130040A9801780094401C0A90302901DB3A29F0DBCDF8089004932E294E
:2052F00029D10178401C2A290A9011D13168CDF80880C91C21F00301091D316051F8045CC0
:20531000002D48BF454601782B46401C0A9011E0454643460AE0680000EBC5004018A0F1EE
:2053300030050A9801782B46401C0A90302901DB3A29F0DB02930AB1224604926C2904D08C
:205350004C2918BFADF8048004D10178ADF804A0401C0A900BA8CDF80C800FAB0790642959
:20537000059379D0692977D0BDF818C0752965D0782961D06F295DD0702946D0632936D02B
:2053900073291AD00A98401E0A900998012812D961490C68B5F1FF3F03D0A84288BF6D1C99
:2053B00000D8099D029508A80AA932466B46A0473F18039865E0454617E03068C01C20F018
:2053D0000300001D306050F8040CBCF1010F014608B94FA00146079112F0BEFC0390B5F12D
:2053F000FF3F4FD0A8424DD9039528464AE03068C01C20F00300001D306010F8040C8DF82F
:205410002C005D46039558463CE0082035680490E81C20F00300001D306050F8041C0822AC
:2054300010230FA80DF0F6F8401E079040210170079823E0082302E0102300E00A23306839
:20545000C01C20F00300001D306050F8041CAA42BCBF2A1C04920DE03068C01C20F0030081
:20547000001D306050F8041CAA42BCBF2A1C04926FF009030FA80DF0CDF807900599081A89
:205490000390009C241ABDF8065000945DB906E008A8202109AA11F0C6F97F1C009C641ED7
:2054B0000094F5D50398401EB0F1FF3F03900FD1BDF8060001281CD10098401E009018D4F0
:2054D00008A8202109AA11F0AEF900987F1CF4E70798017809AA08A811F0A5F90798401C4D
:2054F000079003987F1CDEE708A809AA11F09BF97F1C0A980178401C0A9000297FF4A4AE78
:20551000089808B14146017038460FB0BDE8F08F286E756C6C2900C0640C00002DE9F04F38
:20553000A64D824605F120000068416EADF12C0D03A88847AF4C201D0768002F00F03681A5
:205550004FF0000B388979689B4DCDF81CB0C600097828781036890906D340F6485191FBE3
:20557000F0F1761806F5AF763D7D70438600352D0CBF5F464FF4FA570DF12601E8200FF007
:2055900067FA9DF82600032808BF44F620676068007DF619352803D1D4F8A00380474643E8
:2055B0000220894F8DF8200007F108000068069606A908F0DBF8D8468048824D804980F8C8
:2055D0000080012008702978012901D000F014F960680589466811F01BFE3088000935D322
:2055F00094F83C0390B361684B6A4F6E986AB0F1FF3F25D027B3421C9A628862030E07F84E
:205610000139606890F82A0007F80109606890F8290007F80109606890F828003870626851
:20563000106A00950190801B281A80B20290916A506A92F88C203346153009F0D3F800E0CC
:20565000DB20D4F88073002840F0A680294630460BF052FF642009A90FF0FAF95B4894F87A
:205670003C13007831B994F8EB0309F047FA012805D08DE009F042FA012840F08980DFF8DC
:205690005091A81C87B20DF1250109F170000780E9200FF0DDF99DF82500012805D13D46ED
:2056B000C5F3022040F0180005E02D1DADB2C5F3022040F0080006F8010D06F8015D4D461D
:2056D0009DF82400A5F862800028EE670CBF41484148CDF80CB002238DF8103005F1280699
:2056F000A6F8028005F16009C5F8B8003B4FC9F8180095F8350020F00F0040F0030085F8B2
:20571000350078688047DFF8D8800A90BAF1010F1DD0BAF1040F1AD0BAF1000F14D0BAF13B
:20573000050F0ED0BAF1030F08D194F8FB0310F001FEC07B022818BF4E460AE005F1600632
:2057500007E0DFF8A08004E005F1440601E005F128061A48006A1C4B046D594602208DE858
:205770000300986803AA31464346A0471E490880B96800280AD41D4A92F900000F4F603587
:20579000401C10700A98FD60884711E00A9888471A200CF07DF80BE0002F08BFE420F8D095
:2057B000134880F80080E420B84701E012F08EFD0BB0BDE8F08FC046B01C002050190020BB
:2057D0001F1D0020291D00200C1B0020471A0020141600204E9055550E7A5555641800208F
:2057F00045A900004DDE0000701B0020261D00204B2E0020080200202DE9F04F9E4C054625
:205810006068ADF11C0D8047A34EDFF898B2012D069000F0D58012F0FDF8002800F0CB80AD
:2058300096480078A0B99648007888B99548007870B99548007858B99448007840B9944805
:20585000007828B993480078002808BF012700D00027306A002F00F13C0000F0AC80994C87
:205870000068257880476168DFF83492E368AA00401AB0FBF2F7A0684FF00008B246424634
:205890009F42144672EB040101DA984205D8414687428A4140DA034600E0414618462A4616
:2058B000EB17C01B71EB080112F008F9272607464FF47A7200238846ADF80A600820ADF8FD
:2058D000080038460CF06EFE6B49496A039002A88847049823464FF0000100F6FC02BF1A45
:2058F00078EB0308784271EB080112DA6B480268414638460CF056FE884607464FF0000152
:20591000784271EB080104DA38460FF0FBFA002000E001204C4620704C46207800284AD158
:20593000002738460CF012FB00B101270026381C3FD15D46287800283BD1DAF820005A4C37
:20595000436CA068022102AA98479DF8080080B3DFF85881DAF82020A06898F9001037461A
:2059700011F1020F18BF01274FF0010937B1926B98F900109047DAF82020A0684C4F97F91A
:20599000001011F1020F03D0926B97F9001090476FF00100387088F8000085F80090304682
:2059B00012F0DCFADAF82000C169A06888478AF801603B480670304906988968884757E022
:2059D00001200CF0C3FA21460698896888475D46DFF8ECA02878012838D1012012F0BEFA65
:2059F00011F0A0F958BB204640688047002402278346DFF8C090306AA9F80240416E2F700D
:205A100002A8884702948DF80C70306A2E4A2A4BD0F850C0A0468DE880011068494602AA78
:205A3000E04715498968002819D4244A4F4692F90000F760401C10705846884706E0287817
:205A5000012803D10020287011F0F0FF11F06AF970B92878022804D15046007808B112F09C
:205A700035FC50460078012802D028780228FCD007B0BDE8F08FC04664180020472E002034
:205A9000492E00204B2E0020482E00201E1D00201F1D0020201D0020501900205C1B0020FC
:205AB0004A2E00202A1D00200C1B00201C1D00201D1D00201416002045450100261D0020A5
:205AD000291D0020B01C0020141B00202DE9F04FAC4C07460020ADF13C0DDFF8A482ADF8D2
:205AF0000C00201D00688946017D252900F00281703005A903F074FD002818BFC0B240F084
:205B10003B8101A804A90CF011FB0FF023FD042814BF41F2081543F2C82504A901A80CF079
:205B300005FB98F82B2201993B684FF47A7A504650430AFB1100C01A8542C0F2D880D8F84A
:205B50000422521A0AFB02F1C91A8D4200F3CF808542A34609DD002807DD95FBFAF04FF458
:205B7000916100B201FB003038609DF81F00002857D042F204000DF136010EF043FC11F0FF
:205B900047FA0699441A42F206000DF135010EF039FC9DF835009DF81D10FF2804BF0A2076
:205BB0008DF83500FF2908BF0A219DF835609DF81C507548B4FBF0F2701884B25646A81076
:205BD00054437043A04298BF041C41F20810241805A810F0CCFF9DF81C103D68B0FBF1F21F
:205BF0004A43821A714392B272438B1A891A5B1B491B8C4201D9002908D56142994212D28D
:205C1000002B10D5B4FBF6F109B203E06100B1FBF6F189B23A684FF4916303FB01253D6067
:205C300001E03D68002006460DF1120102A80CF07DFA0298D8F804120024B5FBFAF280185C
:205C50000290814203D998F82B32834202D998F898712FBB9DF81C00B6180004B04298BF27
:205C7000361A9DF81F00002808BF9DF8200024D09DF81C00B6FBF0F085B2BDF833000EF019
:205C900031FA9DF83120014628460EF079FE054610F05AFF024608A928460EF08BFB0CE03E
:205CB000814204D8BDF81200401CADF81200BDF8120098F89B110CF0CDFB89F8000088F893
:205CD000F501DBF80400007D052811D19BF8D10370B999F8000003A9ADF80C0042F20C009D
:205CF00003F0B0FBBDF80C00A8F8F00100E06524204641E00FF02EFC042814BF41F208153C
:205D100043F2C825214800784FF47A7404FB00F13868491BA1F5FA62824206D2A1F57A614C
:205D3000B0FBF1F24A43801A386068460DF10E010CF0FCF93868009998F82B2204FB010143
:205D500054430091611A8D4211DCA4F5FA648C42BCBF00F5FA60386098F89B11B8F8780148
:205D70000CF078FB0146002089F8001002E099F80010652088F8F5110FB0BDE8F08FC04635
:205D90006010002008020020A08601008B1200202DE9F04F00289A461446ADF1340D00F0CF
:205DB000F48011F47C1F40F0ED8011F00F0F00F0EC8007460591002006900B900A904FF09A
:205DD000000909904D4608954FF0010BCDF810B0054648460790059805990BEA000021EA66
:205DF0000B014FEA4B0B401E059100F0AB80401E70D0801E5DD0001F40F0BE8042F20500BA
:205E10000DF10E010EF0FEFA9DF80E60002E00F0B3801CB1276694F86B00069007201526D2
:205E300007F8010B022301A907F8016B42F2010007F8013B0EF0E6FA684603A90CF076F9FA
:205E500006980DF0C9F90146019A00983E4640180090824206D8801ABDF80C300090581CBE
:205E7000ADF80C00009B50084946804609041804030C194300044B4610EB080041EB0901B7
:205E90000AF0EAFD0090BDF80C309DF80C009DF800209DF8011006F8010B181206F8010B56
:205EB0009DF8023006F8012B9DF803200935BF1D42E00220152607F8010B042307F8016BF3
:205ED000BAF1000F07F8013B0CBF09989AF800002D1D4EE01CB1E76594F86B00069005207C
:205EF0001526049B07F8010B0DF10F0107F8016B42F2040007F8013B0EF084FA02A80EF09D
:205F1000A1FF06980DF068F902999DF80F609DF80F30069AED1D4018000200EB6600B0FB62
:205F3000F3F03E4602903F1D06F8012B9DF808109DF809309DF80A2006F8011B06F8013B44
:205F5000327018E00320152607F8010BBAF1000F07F8016B034607F8013B04BF0B9807F820
:205F7000010B05D09AF8000007F8010B9AF801006D1D07F8010BADB2059800287FF42BAFFA
:205F90002E4661E011F00F0F01D000205DE080468A4602264FF4803908F1020509EA0A0038
:205FB0002AEA090A4FEA4909B0F580301AD0B0F5803014D0B0F500300ED0B0F5802009D0D6
:205FD000B0F5002004D0B0F580102AD1072404E0062402E0052400E00424002704E002246B
:205FF000012701E001242746A81C214600F030F847B104F00F04C0F30A0141EAC42141F4B1
:20601000004105E004F07F0400F0FF0141EA042105F8011B0912871929702D18B81C6D1C84
:2060300086B2BAF1000FB9D1022ED8BF00260BDDB01E4FF6FE7708F8010BF019C0F302208D
:2060500040F0A00088F8000030460DB0BDE8F08FF0B504460846ADF16C0D401E70D0401E39
:206070000DD0801E00F00981401E00F0EF80401E00F0E180401E00F0AD80002042E142F2BD
:20609000010007A90EF0BEF942F20B0008A90EF0B9F942F206000DF165010EF0B3F942F26E
:2060B00007000DF166010EF0ADF942F2050019A90EF0A8F904A809F071FE06460DF1670160
:2060D00042F209000EF09EF99DF86700002808BF002503D0022010F031FA0546204607A94D
:2060F000042211F0D3FC241D08A90222204611F0CDFCA71C9DF864009DF865309DF8661063
:206110009DF8674007F8010B9DF8672007F8013B2B4607F8011B610706F0070444EA9160BD
:2061300005F0030404AD40EA8410314607F8010B012400953846019406F048FA0A309AE0A9
:2061500042F206000DF165010EF05CF942F207000DF166010EF056F942F2040019A90EF059
:2061700051F904A809F01AFE05460DF1670142F208000EF047F99DF86700002808BF0023CF
:2061900003D0012010F0DAF903469DF864009DF8657004F8010B9DF8666004F8017B9DF80C
:2061B00067209DF86770790704F8016B03F0030705F0070646EA916004AE40EA87102946F2
:2061D00004F8010B002700962046019706F0FEF9001D50E042F2150011A90EF013F913AFE3
:2061F00042F2160039460EF00DF915AD42F2170029460EF007F917AE42F2180031460EF0C2
:2062100001F9204611A9082211F040FC083408222046394611F03AFC04F1080708223846BF
:20623000294611F033FC082207F10800314611F02DFC202066E042F214000DF122010EF0F7
:20625000E1F8BDF8221002200A1258E009A80021202212F08EF842F2130009A90EF0D2F89B
:2062700009A812F088F8024609A9204611F00EFC09A812F080F880B244E042F20E0002A902
:206290000EF0C0F80DF10A0142F20F000EF0BAF80DF10B0142F20A000EF0B4F803A942F26A
:2062B00010000EF0AFF80DF10D0142F211000EF0A9F80DF10E0142F212000EF0A3F8BDF888
:2062D00008009DF80B209DF80C709DF80D609DF80E509DF80A1004F8010B02F00102001222
:2062F00004F8010B07F0010042EA400206F0010042EA800205F0070042EA4012042004F8E1
:20631000011B22701BB0F0BD2DE9F04FAA4C04F128000068ADF11C0D0EF0D4FD08B111F027
:206330006FF8A048DFF878B2DFF89082DFF87CA200689F4D059010F0F3FB10F029FEE769D1
:20635000A669B7F57A7F13D0801B4FF47A720023A7FB00010AF080FB81464FF47A72002378
:2063700011F0ACFB3A4600230AF076FB301801E0A0EB0609A061DBF8000020F00200CBF8EB
:20639000000068688047DAF80010DAF804204E468919B1F57A7F0DD34FF47A73B1FBF3F307
:2063B000D218CAF804204FF47A731F46B1FBF7F25A43891ACAF80010A9688847686800967B
:2063D0008047D8F804108919C8F80410A9688847D8F8000000285AD007464FF00009686825
:2063F00080470490BDF80200002690B99DF8010078B99DF800003979884204DD00987968DA
:2064100088420AD20BE09DF800103879401A387108E000987968884201D3314601E079684A
:20643000091A7960B88878B9FB8853B9FB6843B13B8933B1B87A194609F00CFCF868786087
:20645000B88808B9FB880BB13B896BB9B9F1000F04BF3868C8F8000003D03868C9F80000F4
:2064700038683E46074601E0B9463F68A9680498884756B1B3882BB9F3881BB9B07A31893F
:2064900009F0E8FB304610F063FD002FA7D1DBF8000040F00200CBF80000E06828B38047E1
:2064B00023E016F8060C2169A6F10C07032819D0E16A9DF806000978884210D116F8080C2D
:2064D0000FF080FFB979012903D0022908BFB07000E03070002031460DF05EF805E010F09E
:2064F0008FFF02E009B13046884708200727ADF80000696AADF8027068468847029E0028F3
:20651000CFD0294800680088C8B1686880472649096800220E880A80A9688847059A00209A
:206530003146207090470646FF202070686880471D4909680A8816430E80A968884710F0AB
:20655000EFFA0746B7F1FF3F1CD0686807B9194F216AB94238BF0F1C80471C230646626A65
:20657000ADF802300820ADF80000696A019268468847A16A3846491CA1620EF0FBFEA9688B
:206590003046884708200A27ADF800004FF0FF36ADF80270696A019668468847CBE6C0467F
:2065B00010E000E0400C00003C2E0020441D0020641800208EC2F528401B0020242E0020AE
:2065D0002DE9FE4F0546287D012807D195F917000DF08AFFB0F1FF3F00F016819548EF7B7F
:2065F000017895481FB990F883208A4208DB012F03D190F882208A4202DBF120BDE8FE8F69
:2066100080462E6A95F83500B5F8289095F83470AC8B4FF0000A5FEA060B029017D098F8D1
:206630003C33002B2FD0D8F8541300292BD006F0FF008847D8F8541306B20BF47F00884756
:20665000361830B2001D00B2C83086B200E0C8260CB1241DA4B298F8E003012809D147B16B
:20667000764802993F1897F804A0405C8019401D86B209EB040080195044801C80B210F06A
:20669000ABFB071C02D11A20BDE8FE8F09EB0A0033193881002C03EB070078600EBF0020F9
:2066B000B819801C00217822C7F8A40007F10C0011F05FFE09EB0600FF2110220019A7F8D9
:2066D0004C0007F13C0011F054FE07F12C000F21102211F04EFE00243C707C707868696A95
:2066F0002A8D11F0D3F907F1840005F12C010B2211F0CCF907F19000294610F0FBFF688992
:20671000A7F89A00287B87F89C00687B05F10E0687F89D00326869460A60706848609DF8A1
:2067300000102046012908BF01209DF80110012908BF40F004009DF80210012908BF40F02E
:2067500008009DF80310012908BF40F010009DF80410012908BF40F020009DF8051001298A
:2067700008BF40F040009DF80610012908BF40F080009DF80710012908BF40F48070A7F826
:206790009E00A87D87F8A000E87D87F8A10095F8380087F86C00AA8BA7F8A82022B1D7F894
:2067B000A400A96911F072F9A87F87F8AA00286AC7F8AC00B7F8A800C0B1D7F8A400A8B1C6
:2067D0007868401E7860F82101707868401E78600470B7F8A810B7F8A8607868401A78604F
:2067F00038898019801C38817868B865B7F89E00410A16D395F83710052905DB00F0040185
:2068100000F00100084302D0E820BDE8FE8F08F1880630460AF0BCFF95F83710304610F024
:2068300007FF98F8000039460CF0B6FE2046BDE8FE8FC0460C1D0020080200203C00000036
:206850002DE9F04142F20400ADF1280D0DF123010DF0D8FD42F205000DF122010DF0D2FDBC
:2068700042F2010069460DF0CDFD8B4C8B489DF82310C4F8A80164204143C4F8A011884940
:20689000C4F8C4119DF822104843C4F8BC018548854EC4F8E001B07888B342F203000DF1B7
:2068B00006010DF0AFFD10F04FF905460DF1060029460DF06DF82D1A9DF8220084F89B514A
:2068D00070B1009860B104F5DC700DF0BBFB04F5BA7009F0C9FD012084F8940184F89801BD
:2068F00042F202000DF106010DF08CFD0DF1060010F00EFB04F5CE700DF0A4FB11E042F2C2
:2069100002000DF106010DF07DFD0DF1060010F0FFFA04F5CE700DF095FB04F5BA700CF009
:206930009BFE96F8FB030FF005FDC07B022804BF012084F8F40194F8F801002840F0A88062
:2069500004F128000021382211F013FD0026A681E08900EB800080B2804610F0CDF804F1AB
:206970002805074627610FB911F0D5FC38463146424611F0FEFC4D484D4FE06305F1080081
:2069900067630DF05FFB42F21B0001A90DF03AFDBDF8040001A9A4F84C0042F21C000DF001
:2069B00031FDBDF8040001A9A4F84E0042F21D000DF028FDBDF8040009A920835D200EF050
:2069D00047F89DF8240000280CBF301C012084F85C00B4F84C0038B100EB401080B210F029
:2069F0008BF80028606551D0B4F84E0040B1410001EB800188B210F07FF80028A06543D06C
:206A1000208B38B1C00080B210F076F8606108B911F081FC27490DF11A00082211F036F891
:206A300001273546208BA84223DCB4F84C50668355B1606D4FF6FF720146A0F81F206D1EAC
:206A50008E7701F12100F7D1B4F84E504DB1A06D4FF6FF71024681806D1ED67002F1060029
:206A7000F8D1201D3146062211F083FC84F8F8710EE060690DF11A01082200EBC50011F051
:206A900005F86D1CADB2CDE711F045FC11F043FC0AB0BDE8F081C04660100020A54001007F
:206AB0009DCB00008982010008020020B1B50000002A7515A0040000F0B500215022ADF194
:206AD0005C0D02A80BF018F9F22016A911F0CEF98F4DBDF8580016A9A5F87000F32011F025
:206AF000C5F9BDF858000DF10901A5F87200E22011F0ACF9688DADF81200410806D305F138
